:100000000C9472000C9493000C9493000C94930045
:100010000C9493000C9493000C9493000C94930014
:100020000C9493000C9493000C9493000C94930004
:100030000C9493000C9493000C9493000C949300F4
:100040000C9493000C9493000C9493000C949300E4
:100050000C9493000C9493000C9493000C949300D4
:100060000C9493000C9493000C9493000C949300C4
:100070000C9493000C9493000C9493000C949300B4
:100080000C9493000C9493000C9493000C949300A4
:100090000C9493000C9493000C9493000C94930094
:1000A0000C9493000C9493000C9493000C94930084
:1000B0000C9493000C9493000C9493000C94930074
:1000C0000C9493000C9493000C9493000C94930064
:1000D0000C9493000C9493000C9493000C94930054
:1000E0000C94930011241FBECFEFD1E2DEBFCDBF31
:1000F00000E00CBF12E0A0E0B2E0E4E3FAE000E0D0
:100100000BBF02C007900D92AE32B107D9F722E0C3
:10011000AEE2B2E001C01D92A033B207E1F70E9447
:10012000EB000C9418050C9400008FB780688FBF0B
:10013000089581309105F1F08230910599F1892B74
:1001400009F048C080EC80937C00EAE7F0E0808111
:1001500080648083808160917800709179007093D1
:100160002F0260932E02882777FD8095982F0E949A
:10017000E00130C081EC80937C00EAE7F0E0808110
:1001800080648083808160917800709179007093A1
:100190002F0260932E02882777FD8095982F0E946A
:1001A000E00118C08AEC80937C00EAE7F0E08081EF
:1001B0008064808380816091780070917900709371
:1001C0002F0260932E02882777FD8095982F0E943A
:1001D000E00100C00895CF93DF93CDB7DEB72F972E
:1001E0000FB6F894DEBF0FBECDBF0E9495000E94EF
:1001F0007F01EAE7F0E080818868808380E092E018
:100200000E94A6010AE010E086E192E00E94A601A9
:100210002FEF8FEF9CE2215080409040E1F700C02B
:1002200000000150110981F788E192E00E94A601C7
:100230000F2EF9E2AF2EF2E0BF2EF02D8E010F5FF0
:100240001F4F8CE192E00E94A60180E090E00E94A6
:1002500099006B017C0182E292E00E94A601C70135
:10026000B6010E94AD017F936F93BF92AF921F932F
:100270000F930E944402C8010E94A60181E090E011
:100280000E9499006B017C0182E292E00E94A6012B
:10029000C701B6010E94AD017F936F93BF92AF92E9
:1002A0001F930F930E944402C8010E94A60182E09E
:1002B00090E00E9499006B017C0182E292E00E9432
:1002C000A601C701B6010E94AD017F936F93BF9253
:1002D000AF921F930F930E944402C8010E94A6018F
:1002E0002FEF8FEF9CE2215080409040E1F700C05B
:1002F00000000FB6F894DEBF0FBECDBFA2CF8FE5D2
:1003000090E09093C5008093C400E1ECF0E0808120
:1003100088608083E2ECF0E08081866080830895CD
:10032000CF93DF93FC012081222369F0DC01119639
:10033000E0ECF0E0C6ECD0E0808185FFFDCF2883C3
:100340002D912111F9CFDF91CF9108950E94900155
:100350008CE292E00E949001089504D06894B1115B
:100360008DC0089570D088F09F5790F0B92F9927CD
:10037000B751A0F0D1F0660F771F881F991F1AF0B0
:10038000BA95C9F712C0B13081F077D0B1E00895C5
:1003900074C0672F782F8827B85F39F0B93FCCF346
:1003A000869577956795B395D9F73EF490958095A6
:1003B000709561957F4F8F4F9F4F0895E89409C0C6
:1003C00097FB3EF490958095709561957F4F8F4F88
:1003D0009F4F9923A9F0F92F96E9BB279395F6959E
:1003E000879577956795B795F111F8CFFAF4BB0F1C
:1003F00011F460FF1BC06F5F7F4F8F4F9F4F16C080
:10040000882311F096E911C0772321F09EE8872F09
:10041000762F05C0662371F096E8862F70E060E0C5
:100420002AF09A95660F771F881FDAF7880F96953E
:10043000879597F9089557FD9058440F551F59F027
:100440005F3F71F04795880F97FB991F61F09F3FC1
:1004500079F087950895121613061406551FF2CFEA
:100460004695F1DF08C0161617061806991FF1CF3A
:1004700086957105610508940895E894BB27662761
:100480007727CB0197F908950F931F93CF93DF93AD
:10049000CDB7DEB72E970FB6F894DEBF0FBECDBF37
:1004A0000E891F8986E08C831A8309838FEF9FE76B
:1004B0009E838D83CE014A96AC01688D798DCE01E5
:1004C00001960E947302EF81F885E00FF11F108200
:1004D0002E960FB6F894DEBF0FBECDBFDF91CF9141
:1004E0001F910F9108952F923F924F925F926F92BA
:1004F0007F928F929F92AF92BF92CF92DF92EF92B4
:10050000FF920F931F93CF93DF93CDB7DEB72C9756
:100510000FB6F894DEBF0FBECDBF7C016B018A0120
:10052000FC0117821682838181FFC6C188248394CF
:10053000912C8C0E9D1EF7019381F60193FD859100
:1005400093FF81916F01882309F4B2C1853239F498
:1005500093FD859193FF81916F01853229F4B70155
:1005600090E00E948E04E7CF512C312C20E0203205
:10057000A8F48B3261F028F4803251F0833271F4A8
:100580000BC08D3239F0803349F4216028C02260DD
:10059000246025C0286023C0206121C027FD27C01A
:1005A000382F30533A3078F426FF06C0FAE05F9EC9
:1005B000300D1124532E13C08AE0389E300D1124C3
:1005C000332E20620CC08E3221F426FD71C12064CE
:1005D00006C08C3611F4206802C0883641F4F6015A
:1005E00093FD859193FF81916F018111C0CF982F69
:1005F0009554933018F09052933028F40C5F1F4FAD
:10060000FFE3F9830DC0833631F0833771F0833512
:1006100009F05EC023C0F801808189830E5F1F4FFF
:1006200044244394512C540115C03801F2E06F0E5C
:10063000711CF801A080B18026FF03C0652D70E019
:1006400002C06FEF7FEFC5012C870E9483042C014D
:1006500083012C856FE7262E222218C03801F2E094
:100660006F0E711CF801A080B18026FF03C0652DBC
:1006700070E002C06FEF7FEFC5012C870E94780405
:100680002C012C8550E8252E222A830123FC1CC036
:1006900006C0B70180E290E00E948E043A94832D58
:1006A00090E048165906A8F30FC0F50127FC859184
:1006B00027FE81915F01B70190E00E948E04311006
:1006C0003A94F1E04F1A51084114510471F7EDC00A
:1006D000843611F0893641F5F80127FF07C06081A3
:1006E0007181828193810C5F1F4F08C0608171818D
:1006F000882777FD8095982F0E5F1F4F4FE6B42E09
:10070000B22297FF09C090958095709561957F4FB3
:100710008F4F9F4FF0E8BF2A2AE030E0A4010E94EB
:10072000BA04A82EA81843C0853731F43FEEB32E83
:10073000B2222AE030E024C099EFB92EB2228F36DF
:10074000B9F020F4883509F0B3C00DC0803721F02E
:10075000883709F0ADC002C020E1B22AB4FE0BC058
:1007600084E0B82A08C024FF09C0E6E0BE2A06C01B
:1007700028E030E005C020E130E002C020E132E0B6
:10078000F801B7FE07C060817181828193810C5F9F
:100790001F4F06C06081718180E090E00E5F1F4FA7
:1007A000A4010E94BA04A82EA818FFE7BF22B6FE33
:1007B0000BC02B2D2E7FA51450F4B4FE0AC0B2FC42
:1007C00008C02B2D2E7E05C07A2C2B2D03C07A2C31
:1007D00001C0752C24FF0DC0FE01EA0DF11D8081C2
:1007E000803311F4297E09C022FF06C073947394EC
:1007F00004C0822F867809F0739423FD14C020FF73
:100800000FC05A2C731460F4530C5718732C08C083
:10081000B70180E290E02C870E948E0473942C85AF
:100820007314B0F304C0731410F4371801C0312CE2
:1008300024FF12C0B70180E390E02C870E948E0451
:100840002C8522FF1EC021FF03C088E590E002C076
:1008500088E790E0B7010CC0822F867891F021FDE7
:1008600002C080E201C08BE227FD8DE2B70190E07B
:100870000E948E0406C0B70180E390E00E948E04BF
:100880005A94A514C0F3AA94F401EA0DF11DB7011E
:10089000808190E00E948E04A110F5CF06C0B701C0
:1008A00080E290E00E948E043A943110F8CF43CE5B
:1008B000F7012681378102C02FEF3FEFC9012C9647
:1008C0000FB6F894DEBF0FBECDBFDF91CF911F9161
:1008D0000F91FF90EF90DF90CF90BF90AF909F90DF
:1008E0008F907F906F905F904F903F902F900895E2
:1008F000FC010590615070400110D8F780959095EB
:100900008E0F9F1F0895FC016150704001900110EF
:10091000D8F7809590958E0F9F1F08950F931F9382
:10092000CF93DF938C01EB018B8181FD03C00FEF2F
:100930001FEF1AC082FF0DC02E813F818C819D81E7
:100940002817390764F4E881F9810193F983E88372
:1009500006C0E885F985802F1995892B41F78E818E
:100960009F8101969F838E83C801DF91CF911F9154
:100970000F910895FA01AA27283051F1203181F111
:10098000E8946F936E7F6E5F7F4F8F4F9F4FAF4F97
:10099000B1E03ED0B4E03CD0670F781F891F9A1FAA
:1009A000A11D680F791F8A1F911DA11D6A0F711D5E
:1009B000811D911DA11D20D009F468943F912AE06A
:1009C000269F11243019305D3193DEF6CF01089552
:1009D000462F4770405D4193B3E00FD0C9F7F6CF83
:1009E000462F4F70405D4A3318F0495D31FD40524B
:1009F000419302D0A9F7EACFB4E0A69597958795E1
:100A000077956795BA95C9F70097610571050895BF
:100A10009B01AC010A2E069457954795379527956B
:100A2000BA95C9F7620F731F841F951FA01D089503
:040A3000F894FFCF68
:100A340074686520636F64652073746172747320D5
:100A44006865726521006900626866007768696C90
:0E0A54006500636F756E743A002564000A0039
:00000001FF
