:10000000D2C00000C2C4000095C4000068C4000053
:100010003BC400000EC40000E1C30000B4C30000F4
:1000200087C30000EEC00000ECC00000EAC0000082
:10003000E8C00000E6C00000E4C00000E2C000002C
:10004000E0C00000DEC00000DCC00000DAC000003C
:10005000D8C00000D6C00000D4C000001FC30000FC
:10006000D0C00000E6C40000BBC40000CAC000004D
:10007000C8C00000C6C00000C4C00000C2C000006C
:10008000C0C00000BEC00000BCC00000BAC000007C
:10009000B8C00000B6C00000B4C00000B2C000008C
:1000A000B0C00000AEC00000ACC00000AAC000009C
:1000B000A8C00000A6C00000A4C00000A2C00000AC
:1000C000A0C000009EC000009CC000009AC00000BC
:1000D00098C0000096C0000094C0000092C00000CC
:1000E00090C0000000002200250028002B002E00F8
:1000F0003100340002010000050108010B0100007D
:100100002100240027002A002D00300033000101C7
:100110000000040107010A01050505050705080897
:100120000808020202020A0A080804040404010181
:100130000101010101010303030303030303040796
:1001400007070C0C0C0C0C0C0C0C0202020206062D
:100150000606060606060B0B0B0B0B0B0B0B010220
:1001600010202008081020401020408002010201C9
:100170000804020101020408102040808040201081
:1001800008040201800402018040201008040201DA
:100190000804020101020408102040800102040842
:1001A00010204080B10611241FBECFEFD1E2DEBF88
:1001B000CDBF00E00CBF12E0A0E0B2E0ECE1FEE059
:1001C00000E00BBF02C007900D92AA34B107D9F727
:1001D00022E0AAE4B2E001C01D92AE3FB207E1F70F
:1001E00010E0C3EDD0E000E005C021970109802FA9
:1001F000FE0106D6C23DD10780E00807B1F74FD413
:100200000BC6FECECF93DF9390E0FC01E25AFE4F87
:100210002491FC01E85EFE4F84918823C1F090E0B8
:10022000880F991FFC01E250FF4FC591D491FC014A
:10023000EC51FF4FA591B4919FB7F8948881322F6C
:10024000309583238883EC91E22BEC939FBFDF9161
:10025000CF9108953FB7F89480915D0290915E022E
:10026000A0915F02B091600226B5A89B05C02F3F08
:1002700019F00196A11DB11D3FBFBA2FA92F982FCC
:100280008827820F911DA11DB11DBC01CD0142E047
:10029000660F771F881F991F4A95D1F70895E0913F
:1002A00053028E2F880F880F80935302ECB1E073B6
:1002B000E295EF70E82BE0935302EF70F0E0E05F1F
:1002C000FD4F80812091560230915702280F311D39
:1002D00087FD3A95309357022093560240914A0287
:1002E00050914B0260914C0270914D02082E000C0F
:1002F000990BAA0BBB0B840F951FA61FB71F8093EA
:100300004A0290934B02A0934C02B0934D02089581
:10031000E09152028E2F880F880F80935202E9B12C
:10032000EC70E695E695E82BE0935202EF70F0E072
:10033000E05FFD4F80812091540230915502280FDB
:10034000311D87FD3A953093550220935402409118
:100350004E0250914F026091500270915102082E4E
:10036000000C990BAA0BBB0B840F951FA61FB71F80
:1003700080934E0290934F02A0935002B09351028B
:1003800008950895CF92DF92EF92FF920F931F93FB
:10039000CF93DF936C017A018B01C0E0D0E0CE15E2
:1003A000DF0581F0D8016D918D01D601ED91FC91B1
:1003B0000190F081E02DC6011995892B11F021964D
:1003C000EECF7E01C701DF91CF911F910F91FF907A
:1003D000EF90DF90CF900895089580E090E0089529
:1003E000FC01538D448D252F30E0842F90E0821B3B
:1003F000930B541710F0CF96089501970895FC01C0
:10040000918D828D981761F0828DDF01A80FB11D4B
:100410005D968C91928D9F5F9F73928F90E008956F
:100420008FEF9FEF0895FC01918D828D981731F029
:10043000828DE80FF11D858D90E008958FEF9FEF7D
:100440000895FC01918D228D892F90E0805C9F4F53
:10045000821B91098F739927089581E692E0F1DF5D
:1004600021E0892B09F420E0822F0895FC01848D7E
:10047000DF01A80FB11DA35ABF4F2C91848D90E0CE
:1004800001968F739927848FA689B7892C93A089A9
:10049000B1898C91837080648C93938D848D981333
:1004A00006C00288F389E02D80818F7D80830895C6
:1004B000EF92FF920F931F93CF93DF93EC0181E0B4
:1004C000888F9B8D8C8D981305C0E889F989808170
:1004D00085FD25C0F62E0B8D10E00F5F1F4F0F73AB
:1004E0001127E02E8C8DE8120BC00FB607FCFACF57
:1004F000E889F989808185FFF5CFCE01B7DFF2CF9A
:100500008B8DFE01E80FF11DE35AFF4FF0829FB77C
:10051000F8940B8FEA89FB89808180620AC09FB7BB
:10052000F894EE89FF896083E889F9898081837076
:10053000806480839FBF81E090E0DF91CF911F9125
:100540000F91FF90EF900895CF93DF93EC01888D8A
:100550008823C1F0EA89FB89808185FD05C0A889CF
:10056000B9898C9186FD0EC00FB607FCF5CF80814E
:1005700085FFF2CFA889B9898C9185FFEDCFCE0197
:1005800075DFE8CFDF91CF91089580E090E0892B6F
:1005900019F063DF811125C080E090E0892B41F0E4
:1005A00080E090E0892B21F00E94000081111CC0A6
:1005B00080E090E0892B41F080E090E0892B21F0F1
:1005C0000E940000811113C080E090E0892BA1F00F
:1005D00080E090E0892B81F00E94000081110AC028
:1005E00008950E940000D8CF0E940000E1CF0E9431
:1005F0000000EACF0C9400000895009761F0FC0120
:1006000001900020E9F73197AF01481B590BBC015D
:1006100081E692E0B7CE80E090E008958F929F92BD
:10062000AF92BF920F931F93CF93DF93CDB7DEB7F7
:10063000A1970FB6F894DEBF0FBECDBF19A242300E
:1006400008F44AE08E010F5D1F4F842E912CA12CDF
:10065000B12CA5019401B2D3E62FB901CA01015012
:100660001109EA3014F4E05D01C0E95CD801EC93B3
:10067000232B242B252B69F7C801BFDFA1960FB6CA
:10068000F894DEBF0FBECDBFDF91CF911F910F91C8
:10069000BF90AF909F908F900895BAD31F920F9202
:1006A0000FB60F9211242F933F938F939F93AF9385
:1006B000BF938091590290915A02A0915B02B09130
:1006C0005C023091580225E1230F2D3720F401966A
:1006D000A11DB11D05C028E9230F0296A11DB11D62
:1006E000209358028093590290935A02A0935B0280
:1006F000B0935C0280915D0290915E02A0915F02D6
:10070000B09160020196A11DB11D80935D0290938E
:100710005E02A0935F02B0936002BF91AF919F9180
:100720008F913F912F910F900FBE0F901F901895B2
:100730001F920F920FB60F9211240BB60F922F93A8
:100740003F934F935F936F937F938F939F93AF9359
:10075000BF93EF93FF93E0910E02F0910F02199572
:10076000FF91EF91BF91AF919F918F917F916F9189
:100770005F914F913F912F910F900BBE0F900FBE45
:100780000F901F9018951F920F920FB60F92112481
:100790000BB60F922F933F934F935F936F937F937B
:1007A0008F939F93AF93BF93EF93FF93E0910C02CE
:1007B000F0910D021995FF91EF91BF91AF919F912B
:1007C0008F917F916F915F914F913F912F910F90FA
:1007D0000BBE0F900FBE0F901F9018951F920F9297
:1007E0000FB60F9211240BB60F922F933F934F9396
:1007F0005F936F937F938F939F93AF93BF93EF9389
:10080000FF93E0910202F09103021995FF91EF919D
:10081000BF91AF919F918F917F916F915F914F9118
:100820003F912F910F900BBE0F900FBE0F901F9016
:1008300018951F920F920FB60F9211240BB60F92BC
:100840002F933F934F935F936F937F938F939F93D8
:10085000AF93BF93EF93FF93E0910002F0910102F9
:100860001995FF91EF91BF91AF919F918F917F91DA
:100870006F915F914F913F912F910F900BBE0F9011
:100880000FBE0F901F9018951F920F920FB60F92E8
:1008900011240BB60F922F933F934F935F936F9357
:1008A0007F938F939F93AF93BF93EF93FF93E091C9
:1008B0000A02F0910B021995FF91EF91BF91AF9150
:1008C0009F918F917F916F915F914F913F912F9168
:1008D0000F900BBE0F900FBE0F901F9018951F9298
:1008E0000F920FB60F9211240BB60F922F933F93D6
:1008F0004F935F936F937F938F939F93AF93BF9328
:10090000EF93FF93E0910802F09109021995FF918E
:10091000EF91BF91AF919F918F917F916F915F9177
:100920004F913F912F910F900BBE0F900FBE0F90E4
:100930001F9018951F920F920FB60F9211240BB6AD
:100940000F922F933F934F935F936F937F938F9368
:100950009F93AF93BF93EF93FF93E0910602F091C3
:1009600007021995FF91EF91BF91AF919F918F91E0
:100970007F916F915F914F913F912F910F900BBE9F
:100980000F900FBE0F901F9018951F920F920FB6E9
:100990000F9211240BB60F922F933F934F935F93B7
:1009A0006F937F938F939F93AF93BF93EF93FF9337
:1009B000E0910402F09105021995FF91EF91BF912A
:1009C000AF919F918F917F916F915F914F913F91E7
:1009D0002F910F900BBE0F900FBE0F901F90189588
:1009E0001F920F920FB60F9211240BB60F922F93F6
:1009F0003F934F935F936F937F938F939F93AF93A7
:100A0000BF93EF93FF9381E692E030DDFF91EF918A
:100A1000BF91AF919F918F917F916F915F914F9116
:100A20003F912F910F900BBE0F900FBE0F901F9014
:100A300018951F920F920FB60F9211240BB60F92BA
:100A40002F938F939F93EF93FF93E0917102F09117
:100A500072028081E0917702F091780282FD12C0EB
:100A6000908180917A028F5F8F7320917B02821731
:100A700051F0E0917A02F0E0EF59FD4F958F8093AD
:100A80007A0201C08081FF91EF919F918F912F9108
:100A90000F900BBE0F900FBE0F901F90189578947B
:100AA00084B5826084BD84B5816084BD85B5826073
:100AB00085BD85B5816085BD80916E008160809324
:100AC0006E0010928100809181008260809381008D
:100AD000809181008160809381008091800081609D
:100AE000809380008091B10084608093B1008091F8
:100AF000B00081608093B00080919100826080930B
:100B0000910080919100816080939100809190008C
:100B10008160809390008091A10082608093A10009
:100B20008091A10081608093A1008091A0008160EC
:100B30008093A000809121018260809321018091A7
:100B40002101816080932101809120018160809347
:100B5000200180917A00846080937A0080917A00ED
:100B6000826080937A0080917A008E7F80937A00F1
:100B700080917A00806880937A001092C100F89486
:100B800083E140DB82E03EDB82E13CDB83E03ADB79
:100B90004FE451E0509301024093000280916A00BB
:100BA0008C7F816080936A00EC9A28E831E0309372
:100BB000090220930802809169008F7C80618093F4
:100BC0006900EA9A509303024093020280916A00FE
:100BD000837F846080936A00ED9A30930B022093A8
:100BE0000A02809169008F73806480936900EB9A98
:100BF000109257021092560210925502109254020F
:100C00008CB1807382958F7090915302892B809361
:100C1000530289B18C708695869590915202892BEA
:100C2000809352027894E0917102F091720282E016
:100C30008083E0916D02F0916E021082E0916F026C
:100C4000F09170028FE1808310927902E091750239
:100C5000F091760286E08083E0917302F091740255
:100C6000808180618083E0917302F09174028081C1
:100C700088608083E0917302F091740280818068C3
:100C80008083E0917302F091740280818F7D808374
:100C900082E392E0B2DCC0905602D09057020D2C55
:100CA000000CEE08FF08F7FE0DC06DE281E692E051
:100CB000FFDB66277727CB016C197D098E099F0919
:100CC0004AE003C04AE0C701B601A8DC8DE392E028
:100CD00094DC80E492E091DCC0905402D090550204
:100CE0000D2C000CEE08FF08F7FE0DC06DE281E64A
:100CF00092E0DEDB66277727CB016C197D098E0930
:100D00009F094AE003C04AE0C701B60187DC8DE3D2
:100D100092E073DC9FDA4B015C0188EEC82E83E021
:100D2000D82EE12CF12C96DADC01CB018819990937
:100D3000AA09BB09883E9340A105B105A0F321E0B3
:100D4000C21AD108E108F10888EE880E83E0981EE7
:100D5000A11CB11CC114D104E104F10421F715DC7C
:100D600097CFE1E6F2E01382128288EE93E0A0E0F2
:100D7000B0E084839583A683B78384E292E0918375
:100D8000808385EC90E09587848784EC90E097875A
:100D9000868780EC90E0918B808B81EC90E0938B48
:100DA000828B82EC90E0958B848B86EC90E0978B25
:100DB000868B118E128E138E148E0895A1E21A2E38
:100DC000AA1BBB1BFD010DC0AA1FBB1FEE1FFF1FEF
:100DD000A217B307E407F50720F0A21BB30BE40B3F
:100DE000F50B661F771F881F991F1A9469F7609586
:100DF0007095809590959B01AC01BD01CF01089540
:100E0000EE0FFF1F881F8BBF0790F691E02D1994FE
:0C0E100081E090E0F89400C0F894FFCF5F
:100E1C00C101C101C101C101C101C101C101C101B6
:100E2C0000FF0100010000FFFF0000010001FF00B6
:100E3C00000000005802C201F001A4022102FF01CF
:100E4C001302456E636F646572413A20000D0A000F
:0A0E5C00456E636F6465724220006A
:00000001FF
